:100000000C9434000C9446000C9446000C9446006A
:100010000C9446000C9446000C9446000C94460048
:100020000C9446000C9446000C9446000C94480036
:100030000C9446000C9446000C9446000C94460028
:100040000C9446000C9446000C9446000C94460018
:100050000C9446000C9446000C9446000C94460008
:100060000C9446000C94460011241FBECFEFD4E040
:10007000DEBFCDBF11E0A0E0B1E001C01D92A7300E
:10008000B107E1F70E94F3010C9466020C940000A2
:100090001F920F920FB60F9211248F939F9380910E
:1000A0000601882391F08091040190910501892B2C
:1000B00051F0809104019091050101979093050101
:1000C0008093040102C0109206018091000190917A
:1000D0000101019690930101809300019F918F91FE
:1000E0000F900FBE0F901F901895982F8091C00011
:1000F00085FFFCCF9093C600089502C08091C60092
:100100008091C00087FDFACF08958091C00087FFDD
:10011000FCCF8091C6000895109280008CE08093FF
:10012000810087E490E0909389008093880082E0CA
:1001300080936F000895909305018093040181E0FE
:1001400080930601809106018823E1F7089583E1F9
:1001500090E09093C5008093C40088E18093C10033
:1001600086E08093C20008958091C00085FFFCCF97
:1001700089E88093C6008091C00085FFFCCF109273
:10018000C6008091C00085FFFCCF80E88093C60048
:100190008091C00085FFFCCF1092C6008091C00006
:1001A00085FFFCCF1092C6008EEF9BE09093050177
:1001B0008093040181E080930601809106018823E9
:1001C000E1F78091C00085FFFCCF89E88093C600ED
:1001D0008091C00085FFFCCF1092C6008091C000C6
:1001E00085FFFCCF1092C6008091C00085FFFCCF38
:1001F0001092C6008091C00085FFFCCF1092C6000F
:1002000008958091C00085FFFCCF89E88093C600E7
:100210008091C00085FFFCCF1092C6008091C00085
:1002200085FFFCCF80E88093C6008091C00085FFE9
:10023000FCCF1092C6008091C00085FFFCCF1092C9
:10024000C60082E296E0909305018093040181E06C
:1002500080930601809106018823E1F78091C00018
:1002600085FFFCCF89E88093C6008091C00085FFA0
:10027000FCCF1092C6008091C00085FFFCCF109289
:10028000C6008091C00085FFFCCF1092C60080910F
:10029000C00085FFFCCF1092C60008958091C00079
:1002A00085FFFCCF88E98093C6008091C00085FF60
:1002B000FCCF89E08093C6008091C00085FFFCCF11
:1002C00089E88093C6008091C00085FFFCCF109222
:1002D000C6008091C00085FFFCCF80E88093C600F7
:1002E0008091C00085FFFCCF8FE78093C60080918E
:1002F000C00085FFFCCF8FEF8093C6008091C000C7
:1003000085FFFCCF8EE98093C6008091C00085FFF9
:10031000FCCF85E08093C6008091C00085FFFCCFB4
:100320008EE88093C6008091C00085FFFCCF87E0F7
:100330008093C6008091C00085FFFCCF89E980933F
:10034000C60008958091C00085FFFCCF89E88093A6
:10035000C6008091C00085FFFCCF8FEF8093C60060
:100360008091C00085FFFCCF8EEC8093C600809109
:10037000C00085FFFCCF8FE78093C6008091C0004E
:1003800085FFFCCF8FEF8093C60088EE93E09093BB
:1003900005018093040181E08093060180910601AC
:1003A0008823E1F708958091C00085FFFCCF89E89C
:1003B0008093C6008091C00085FFFCCF1092C600DC
:1003C0008091C00085FFFCCF1092C6008091C000D4
:1003D00085FFFCCF1092C6008091C00085FFFCCF46
:1003E0001092C6000895CF93DF93F89483E190E0D4
:1003F0009093C5008093C40088E18093C10086E09B
:100400008093C200109280008CE08093810087E48A
:1004100090E0909389008093880082E080936F0041
:1004200078948091C00085FFFCCF80E88093C6005F
:100430008091C00085FFFCCF84E88093C60088EEE1
:1004400093E0909305018093040181E0809306017D
:10045000809106018823E1F70E944E01C0E0D0E0C0
:100460008091C00087FFFCCF8091C600809302017D
:10047000109203010E94D3010E94A2018091000109
:1004800090910101815A9F406CF00E94D3010E941B
:10049000010110920101109200010E944E01C1E081
:1004A000D0E0DECF219759F40E94B40010920101F0
:1004B000109200010E944E01C2E0D0E0D1CF0E9414
:1004C000D30180E090E0DF91CF910895F894FFCFC1
:00000001FF
